:1000000033C000004CC000004AC0000048C00000DF
:1000100046C0000044C0000042C0000040C00000D4
:100020003EC000003CC000003AC0000038C00000E4
:1000300036C0000034C0000032C0000030C00000F4
:100040002EC000002CC000002AC0000028C0000004
:1000500026C0000024C0000022C0000020C0000014
:100060001EC000001CC0000011241FBECFEFD8E04E
:10007000DEBFCDBF11E0A0E0B1E0E2E3F4E002C0FA
:1000800005900D92AA30B107D9F721E0AAE0B1E0BE
:1000900001C01D92AB30B207E1F702D0C8C1B0CFAA
:1000A000CF93DF93CDB7DEB72B970FB6F894DEBFB3
:1000B0000FBECDBF48D061E081E0FCD01B8685E05B
:1000C000E0E0F1E0DE01169601900D928A95E1F7ED
:1000D000CE0106967DD185E0E5E0F1E0DE011196E6
:1000E00001900D928A95E1F7CE01019664D1219A93
:1000F0002998299A2FEF89E698E121508040904075
:10010000E1F700C0000029982FEF89E698E121501F
:1001100080409040E1F700C00000299A2FEF89E667
:1001200098E1215080409040E1F700C000002998FC
:1001300012E018D18823E9F3CE010B9698D085B14F
:10014000812785B9F6CF51D180E056D181E05AC1DF
:10015000FF920F931F93CF93DF93082F80E058D126
:10016000C7E0D0E0F12C10E098010C2E02C03595CC
:1001700027950A94E2F720FF02C081E001C080E0E9
:100180004DD181E045D1FF0C4FD1882319F08F2D3F
:100190008160F82E80E03CD1219730F78F2DDF91E0
:1001A000CF911F910F91FF900895CF9380E02AD1B6
:1001B0008FEFCEDFC82F81E025D18C2FCF9108950E
:1001C000CF92DF92FF920F931F93CF93DF931F92F3
:1001D000CDB7DEB7F82E8B016C018C2D8F198417EB
:1001E00050F4F60181916F014983B2DFF8018193E8
:1001F0008F014981F2CF0F90DF91CF911F910F9125
:10020000FF90DF90CF900895EF92FF921F93CF93CE
:10021000DF931F92CDB7DEB7182F7C018E2D811B87
:10022000861738F4F70181917F01698391DF698135
:10023000F5CF0F90DF91CF911F91FF90EF90089530
:100240001F93CF93DF931F92CDB7DEB7182F80E0B7
:100250006983D8D0812F8F7180627ADF6981862F80
:1002600077DF81E00F90DF91CF911F91CBC0CF93CB
:10027000DF93EC0180E0C6D081E66ADF40910A019D
:10028000BE01CE019DDF81E0BDD060E487E0DF915B
:10029000CF91D6CF80E0B6D082EE5ADF81E0B2D0E7
:1002A00060E787E0CDDF80E0A7D06BE080E0C8DFCB
:1002B00081E0A2C060930A01682F85E0C1DF60E0A1
:1002C00081E1BEDF60910A0182E1BADF60E083E193
:1002D000B7DF60E084E1B4DF60E085E1B1DF60E0DA
:1002E00086E1AEDF66E086E0ABDF68E080E0A8DFB5
:1002F00063E081E0A5DF63E082E0A2DF6FE484E0F9
:100300009FDF60E08CE19CDFC5CFEF92FF921F93EF
:10031000CF93DF931F92CDB7DEB7182F7B0180E01C
:10032000498370D0812F8F7113DF4981B701C701D5
:1003300047DF81E00F90DF91CF911F91FF90EF9009
:1003400061C0CF93DF931F92CDB7DEB741E0BE010E
:100350006F5F7F4F87E1D9DF898181700F90DF91D7
:10036000CF91089522DF86FD06C0EBDF91E0882360
:1003700019F090E001C091E0892F0895EF92FF926B
:100380001F93CF93DF931F92CDB7DEB7182F7B015A
:1003900080E0498337D0812F8F718062D9DE498117
:1003A000642FC70131DF81E00F90DF91CF911F9162
:1003B000FF90EF9027C0CF93DF93EC0180E01CD03B
:1003C00045E0BE018BE0DADF81E0DF91CF9114C020
:1003D000CF93DF93EC0145E0BC018AE0CFDF45E03D
:1003E000BE0180E1DF91CF91C9CF229A389A259A38
:1003F000239A2498209A0895882311F02A9A089520
:100400002A980895882311F0409A089540980895F5
:10041000882311F02D9A08952D980895882311F0BE
:100420002B9A08952B98089583B180710895F894BC
:02043000FFCFFC
:0A043200D8D8D8D8D8E8E8E8E8E800
:00000001FF
