:1000000033C000004CC000004AC0000048C00000DF
:1000100046C0000044C0000042C0000040C00000D4
:100020003EC000003CC000003AC0000038C00000E4
:1000300036C0000034C0000032C0000030C00000F4
:100040002EC000002CC000002AC0000028C0000004
:1000500026C0000024C0000022C0000020C0000014
:100060001EC000001CC0000011241FBECFEFD8E04E
:10007000DEBFCDBF11E0A0E0B1E0E0E4F4E002C0FB
:1000800005900D92A031B107D9F721E0A0E1B1E0D0
:1000900001C01D92A131B207E1F702D0CFC1B0CFAC
:1000A000CF93DF93CDB7DEB760970FB6F894DEBF7E
:1000B0000FBECDBF8DD061E081E01CD185E0E0E0D6
:1000C000F1E0DE011B9601900D928A95E1F785E043
:1000D000E5E0F1E0DE01169601900D928A95E1F7D8
:1000E000CE010B967CD185E0EAE0F1E0DE011196CD
:1000F00001900D928A95E1F7CE01019663D1219A84
:10010000299887B1837F87B988B18C6088B9299A8B
:100110002FEF89E698E1215080409040E1F700C040
:10012000000029982FEF89E698E121508040904007
:10013000E1F700C00000299A2FEF89E698E12150ED
:1001400080409040E1F700C00000299836B13C7033
:10015000C12CB12C20E08E01055F1F4F88E0A82E36
:100160007E0186E0E80EF11C992493948FE99FE0CC
:100170000197F1F700C00000D6B09D2D9C70D92EDC
:1001800092FD02C0C02EB12E8D2D8A25887011F0EF
:10019000CE2CBF2CD31202C03D2DE8CF222329F054
:1001A0002130D1F7299820E0F7CF8C2D9B2D17D146
:1001B000988ACE014096CFD048D0882311F0299A52
:1001C000FBCF4AD0882311F021E0E6CF2998FCCF5D
:1001D00013D180E018D181E01CC1FF920F931F93CF
:1001E000CF93DF93082F80E01AD1C7E0D0E0F12C45
:1001F00010E098010C2E02C0359527950A94E2F77D
:1002000020FF02C081E001C080E00FD181E007D172
:10021000FF0C11D1882319F08F2D8160F82E80E01A
:10022000FED0219730F78F2DDF91CF911F910F9145
:10023000FF900895CF9380E0ECD08FEFCEDFC82FF2
:1002400081E0E7D08C2FCF910895F4DF982F907341
:1002500081E009F080E00895EDDF85FD04C084FFB2
:1002600004C081E0089580E008958FEF0895EF9233
:10027000FF921F93CF93DF931F92CDB7DEB7182F56
:100280007C018E2D811B861738F4F70181917F0147
:100290006983A3DF6981F5CF0F90DF91CF911F9123
:1002A000FF90EF9008951F93CF93DF931F92CDB7E8
:1002B000DEB7182F80E06983ACD0812F8F71806208
:1002C0008CDF6981862F89DF81E00F90DF91CF91EC
:1002D0001F919FC080E09DD082EE7FDF81E099D0AA
:1002E00060E787E0E0DF80E08ED06BE080E0DBDF7E
:1002F00081E089C060931001682F85E0D4DF60E061
:1003000081E1D1DF6091100182E1CDDF60E083E126
:10031000CADF60E084E1C7DF60E085E1C4DF60E060
:1003200086E1C1DF66E086E0BEDF68E080E0BBDF3B
:1003300063E081E0B8DF63E082E0B5DF6FE484E092
:10034000B2DF60E08CE1AFDFC5CF60E787E0ABDF15
:100350006AE080E0A8CFCF93DF93EC0180E053D038
:10036000F4DF80E056D081EE38DF81E052D080E0CB
:1003700050D080EA32DF60911001CE0178DF81E059
:1003800048D081E0DF91CF913EC0EF92FF921F9362
:10039000CF93DF931F92CDB7DEB7182F7B0180E09C
:1003A000498337D0812F8F71806217DF4981642F95
:1003B000C7015DDF81E00F90DF91CF911F91FF902A
:1003C000EF9027C0CF93DF93EC0180E01CD045E095
:1003D000BE018BE0DADF81E0DF91CF9114C0CF93D3
:1003E000DF93EC0145E0BC018AE0CFDF45E0BE01D0
:1003F00080E1DF91CF91C9CF229A389A259A239A2A
:100400002498209A0895882311F02A9A08952A980A
:100410000895882311F0409A0895409808958823FC
:1004200011F02D9A08952D980895882311F02B9A94
:1004300008952B98089583B180710895F894FFCFA3
:10044000E7E7E7E7E7E8E8E8E8E8D7D7D7D7D7006E
:00000001FF
